:060000000A128A110C280F
:10000800FE00030EF1000A08F2000A128A11732892
:100018000A128A110F28F40183010A128A11002991
:10002800F30007307306031D1A281B281F28703099
:10003800831603138F0406307306031D242825280E
:100048002B28831603130F088F3960388F0005306B
:100058007306031D302831283728831603130F0829
:100068008F3950388F0004307306031D3C283D2813
:100078004328831603130F088F3940388F00033045
:100088007306031D482849284F28831603130F08B1
:100098008F3930388F0002307306031D54285528D5
:1000A8005B28831603130F088F3920388F007303DA
:1000B800031D5F2860286628831603130F088F39ED
:1000C80010388F007308031D6A286B286F288F303B
:1000D800831603138F05831603130F1408000B1CD4
:1000E80076287728C9288312031306187C287D28C8
:1000F8008C28F930F0008028F00B7F28832884288A
:10010800F401F40A0B107408831203139900C92828
:1001180086188F2890289F28F930F0009328F00B34
:100128009228962897280230F4000B10740883123E
:1001380003139900C9280619A228A328B228F93060
:10014800F000A628F00BA528A928AA280330F40057
:100158000B107408831203139900C9288619B5284F
:10016800B628C528F930F000B928F00BB828BC2803
:10017800BD280430F4000B1074088312031399008F
:10018800C9280630F4007408990072088A00710EB4
:100198008300FE0E7E0E090083160317880189016D
:1001A8000F308316031386008312031386018B1501
:1001B8000B108B1783160313151416149514961425
:1001C8001515161595159615811308000C3083160C
:1001D8000313990018128312031398178316031335
:1001E8001815831603178715831603139816831299
:1001F80003130C121816080003300A128A1114206F
:100208000A128A110A128A11D0200A128A110A12B5
:100218008A11EA200A128A1110290A128A110C2856
:08400000FF3FFF3FFF3FFF3FC0
:04400E00D420FF3F7C
:00000001FF
