:060000000A128A110C280F
:10000800FE00030EF1000A08F2000A128A111428F1
:100018000A128A110F28F40183010A128A11182979
:100028000B1C172818287E288312031386181D28EE
:100038001E282D28F930F0002128F00B202824282C
:1000480025280230F4000B1074088312031399005A
:100058007E280619302831284028F930F000342845
:10006800F00B3328372838280330F4000B107408B5
:100078008312031399007E2886194328442853289D
:10008800F930F0004728F00B46284A284B2804305E
:10009800F4000B1074088312031399007E28061AC3
:1000A800562857286628F930F0005A28F00B5928A6
:1000B8005D285E280530F4000B10740883120313C2
:1000C80099007E28861A69286A287928F930F0006C
:1000D8006D28F00B6C2870287128F401F40A0B10B5
:1000E80074088312031399007E280630F4007408FC
:1000F80099000B1072088A00710E8300FE0E7E0EA6
:100108000900F30007307306031D8B288C289028FC
:100118007030831603138F0406307306031D952869
:1001280096289C28831603130F088F3960388F0090
:1001380005307306031DA128A228A82883160313D7
:100148000F088F3950388F0004307306031DAD280F
:10015800AE28B428831603130F088F3940388F0050
:1001680003307306031DB928BA28C0288316031361
:100178000F088F3930388F0002307306031DC528E9
:10018800C628CC28831603130F088F3920388F0010
:100198007303031DD028D128D728831603130F080B
:1001A8008F3910388F007308031DDB28DC28E028FE
:1001B8008F30831603138F05831603130F1408005B
:1001C80083160317880189013F30831603138600BD
:1001D8008312031386018B150B108B1783160313D9
:1001E80015141614951496141515161595159615B7
:1001F8001516161695169616811308000C308316D8
:100208000313990018128312031398178316031304
:100218001815831603178715831603139816831268
:1002280003130C121816080003300A128A118520CD
:100238000A128A110A128A11E4200A128A110A1271
:100248008A1102210A128A1128290A128A110C28F5
:08400000FF3FFF3FFF3FFF3FC0
:04400E00D420FF3F7C
:00000001FF
